{
  "_format": "hh-sol-artifact-1",
  "contractName": "RoboPunksNFT",
  "sourceName": "contracts/RoboPunksNft.sol",
  "abi": [
    {
      "inputs": [],
      "stateMutability": "nonpayable",
      "type": "constructor"
    },
    {
      "anonymous": false,
      "inputs": [
        {
          "indexed": true,
          "internalType": "address",
          "name": "owner",
          "type": "address"
        },
        {
          "indexed": true,
          "internalType": "address",
          "name": "approved",
          "type": "address"
        },
        {
          "indexed": true,
          "internalType": "uint256",
          "name": "tokenId",
          "type": "uint256"
        }
      ],
      "name": "Approval",
      "type": "event"
    },
    {
      "anonymous": false,
      "inputs": [
        {
          "indexed": true,
          "internalType": "address",
          "name": "owner",
          "type": "address"
        },
        {
          "indexed": true,
          "internalType": "address",
          "name": "operator",
          "type": "address"
        },
        {
          "indexed": false,
          "internalType": "bool",
          "name": "approved",
          "type": "bool"
        }
      ],
      "name": "ApprovalForAll",
      "type": "event"
    },
    {
      "anonymous": false,
      "inputs": [
        {
          "indexed": true,
          "internalType": "address",
          "name": "previousOwner",
          "type": "address"
        },
        {
          "indexed": true,
          "internalType": "address",
          "name": "newOwner",
          "type": "address"
        }
      ],
      "name": "OwnershipTransferred",
      "type": "event"
    },
    {
      "anonymous": false,
      "inputs": [
        {
          "indexed": true,
          "internalType": "address",
          "name": "from",
          "type": "address"
        },
        {
          "indexed": true,
          "internalType": "address",
          "name": "to",
          "type": "address"
        },
        {
          "indexed": true,
          "internalType": "uint256",
          "name": "tokenId",
          "type": "uint256"
        }
      ],
      "name": "Transfer",
      "type": "event"
    },
    {
      "inputs": [
        {
          "internalType": "address",
          "name": "to",
          "type": "address"
        },
        {
          "internalType": "uint256",
          "name": "tokenId",
          "type": "uint256"
        }
      ],
      "name": "approve",
      "outputs": [],
      "stateMutability": "nonpayable",
      "type": "function"
    },
    {
      "inputs": [
        {
          "internalType": "address",
          "name": "owner",
          "type": "address"
        }
      ],
      "name": "balanceOf",
      "outputs": [
        {
          "internalType": "uint256",
          "name": "",
          "type": "uint256"
        }
      ],
      "stateMutability": "view",
      "type": "function"
    },
    {
      "inputs": [
        {
          "internalType": "bool",
          "name": "publicState",
          "type": "bool"
        },
        {
          "internalType": "bool",
          "name": "whitelistState",
          "type": "bool"
        }
      ],
      "name": "changeNftMintState",
      "outputs": [],
      "stateMutability": "nonpayable",
      "type": "function"
    },
    {
      "inputs": [
        {
          "internalType": "address",
          "name": "whitelistAddress",
          "type": "address"
        }
      ],
      "name": "checkWhitelist",
      "outputs": [
        {
          "internalType": "bool",
          "name": "",
          "type": "bool"
        }
      ],
      "stateMutability": "view",
      "type": "function"
    },
    {
      "inputs": [
        {
          "internalType": "uint256",
          "name": "tokenId",
          "type": "uint256"
        }
      ],
      "name": "getApproved",
      "outputs": [
        {
          "internalType": "address",
          "name": "",
          "type": "address"
        }
      ],
      "stateMutability": "view",
      "type": "function"
    },
    {
      "inputs": [],
      "name": "getBaseTokenURI",
      "outputs": [
        {
          "internalType": "string",
          "name": "",
          "type": "string"
        }
      ],
      "stateMutability": "pure",
      "type": "function"
    },
    {
      "inputs": [],
      "name": "getMaxSupply",
      "outputs": [
        {
          "internalType": "uint256",
          "name": "",
          "type": "uint256"
        }
      ],
      "stateMutability": "pure",
      "type": "function"
    },
    {
      "inputs": [],
      "name": "getPublicMintPrice",
      "outputs": [
        {
          "internalType": "uint256",
          "name": "",
          "type": "uint256"
        }
      ],
      "stateMutability": "pure",
      "type": "function"
    },
    {
      "inputs": [],
      "name": "getPublicNftState",
      "outputs": [
        {
          "internalType": "bool",
          "name": "",
          "type": "bool"
        }
      ],
      "stateMutability": "view",
      "type": "function"
    },
    {
      "inputs": [],
      "name": "getRevealState",
      "outputs": [
        {
          "internalType": "bool",
          "name": "",
          "type": "bool"
        }
      ],
      "stateMutability": "view",
      "type": "function"
    },
    {
      "inputs": [],
      "name": "getTotalSupply",
      "outputs": [
        {
          "internalType": "uint256",
          "name": "",
          "type": "uint256"
        }
      ],
      "stateMutability": "view",
      "type": "function"
    },
    {
      "inputs": [],
      "name": "getWalletLimit",
      "outputs": [
        {
          "internalType": "uint256",
          "name": "",
          "type": "uint256"
        }
      ],
      "stateMutability": "pure",
      "type": "function"
    },
    {
      "inputs": [],
      "name": "getWhitelistMintPrice",
      "outputs": [
        {
          "internalType": "uint256",
          "name": "",
          "type": "uint256"
        }
      ],
      "stateMutability": "pure",
      "type": "function"
    },
    {
      "inputs": [],
      "name": "getWhitelistNftState",
      "outputs": [
        {
          "internalType": "bool",
          "name": "",
          "type": "bool"
        }
      ],
      "stateMutability": "view",
      "type": "function"
    },
    {
      "inputs": [
        {
          "internalType": "address",
          "name": "walletAddress",
          "type": "address"
        }
      ],
      "name": "getYourWalletMints",
      "outputs": [
        {
          "internalType": "uint256",
          "name": "",
          "type": "uint256"
        }
      ],
      "stateMutability": "view",
      "type": "function"
    },
    {
      "inputs": [
        {
          "internalType": "address",
          "name": "owner",
          "type": "address"
        },
        {
          "internalType": "address",
          "name": "operator",
          "type": "address"
        }
      ],
      "name": "isApprovedForAll",
      "outputs": [
        {
          "internalType": "bool",
          "name": "",
          "type": "bool"
        }
      ],
      "stateMutability": "view",
      "type": "function"
    },
    {
      "inputs": [
        {
          "internalType": "bool",
          "name": "reveal",
          "type": "bool"
        }
      ],
      "name": "isRevealed",
      "outputs": [],
      "stateMutability": "nonpayable",
      "type": "function"
    },
    {
      "inputs": [],
      "name": "name",
      "outputs": [
        {
          "internalType": "string",
          "name": "",
          "type": "string"
        }
      ],
      "stateMutability": "view",
      "type": "function"
    },
    {
      "inputs": [],
      "name": "owner",
      "outputs": [
        {
          "internalType": "address",
          "name": "",
          "type": "address"
        }
      ],
      "stateMutability": "view",
      "type": "function"
    },
    {
      "inputs": [
        {
          "internalType": "uint256",
          "name": "tokenId",
          "type": "uint256"
        }
      ],
      "name": "ownerOf",
      "outputs": [
        {
          "internalType": "address",
          "name": "",
          "type": "address"
        }
      ],
      "stateMutability": "view",
      "type": "function"
    },
    {
      "inputs": [
        {
          "internalType": "uint256",
          "name": "quantity",
          "type": "uint256"
        }
      ],
      "name": "publicMint",
      "outputs": [],
      "stateMutability": "payable",
      "type": "function"
    },
    {
      "inputs": [],
      "name": "renounceOwnership",
      "outputs": [],
      "stateMutability": "nonpayable",
      "type": "function"
    },
    {
      "inputs": [
        {
          "internalType": "address",
          "name": "from",
          "type": "address"
        },
        {
          "internalType": "address",
          "name": "to",
          "type": "address"
        },
        {
          "internalType": "uint256",
          "name": "tokenId",
          "type": "uint256"
        }
      ],
      "name": "safeTransferFrom",
      "outputs": [],
      "stateMutability": "nonpayable",
      "type": "function"
    },
    {
      "inputs": [
        {
          "internalType": "address",
          "name": "from",
          "type": "address"
        },
        {
          "internalType": "address",
          "name": "to",
          "type": "address"
        },
        {
          "internalType": "uint256",
          "name": "tokenId",
          "type": "uint256"
        },
        {
          "internalType": "bytes",
          "name": "data",
          "type": "bytes"
        }
      ],
      "name": "safeTransferFrom",
      "outputs": [],
      "stateMutability": "nonpayable",
      "type": "function"
    },
    {
      "inputs": [
        {
          "internalType": "address",
          "name": "operator",
          "type": "address"
        },
        {
          "internalType": "bool",
          "name": "approved",
          "type": "bool"
        }
      ],
      "name": "setApprovalForAll",
      "outputs": [],
      "stateMutability": "nonpayable",
      "type": "function"
    },
    {
      "inputs": [
        {
          "internalType": "address[]",
          "name": "addresses",
          "type": "address[]"
        }
      ],
      "name": "setWhitelist",
      "outputs": [],
      "stateMutability": "nonpayable",
      "type": "function"
    },
    {
      "inputs": [
        {
          "internalType": "bytes4",
          "name": "interfaceId",
          "type": "bytes4"
        }
      ],
      "name": "supportsInterface",
      "outputs": [
        {
          "internalType": "bool",
          "name": "",
          "type": "bool"
        }
      ],
      "stateMutability": "view",
      "type": "function"
    },
    {
      "inputs": [],
      "name": "symbol",
      "outputs": [
        {
          "internalType": "string",
          "name": "",
          "type": "string"
        }
      ],
      "stateMutability": "view",
      "type": "function"
    },
    {
      "inputs": [
        {
          "internalType": "uint256",
          "name": "tokenId",
          "type": "uint256"
        }
      ],
      "name": "tokenURI",
      "outputs": [
        {
          "internalType": "string",
          "name": "",
          "type": "string"
        }
      ],
      "stateMutability": "view",
      "type": "function"
    },
    {
      "inputs": [
        {
          "internalType": "address",
          "name": "from",
          "type": "address"
        },
        {
          "internalType": "address",
          "name": "to",
          "type": "address"
        },
        {
          "internalType": "uint256",
          "name": "tokenId",
          "type": "uint256"
        }
      ],
      "name": "transferFrom",
      "outputs": [],
      "stateMutability": "nonpayable",
      "type": "function"
    },
    {
      "inputs": [
        {
          "internalType": "address",
          "name": "newOwner",
          "type": "address"
        }
      ],
      "name": "transferOwnership",
      "outputs": [],
      "stateMutability": "nonpayable",
      "type": "function"
    },
    {
      "inputs": [
        {
          "internalType": "uint256",
          "name": "quantity",
          "type": "uint256"
        }
      ],
      "name": "whitelistMint",
      "outputs": [],
      "stateMutability": "payable",
      "type": "function"
    },
    {
      "inputs": [],
      "name": "withdraw",
      "outputs": [],
      "stateMutability": "nonpayable",
      "type": "function"
    }
  ],
  "bytecode": "0x608060405260006007556008805462ffffff191690553480156200002257600080fd5b5060405180604001604052806009815260200168526f626f50756e6b7360b81b81525060405180604001604052806002815260200161052560f41b81525081600090816200007191906200019e565b5060016200008082826200019e565b5050506200009d62000097620000a360201b60201c565b620000a7565b6200026a565b3390565b600680546001600160a01b038381166001600160a01b0319831681179093556040519116919082907f8be0079c531659141344cd1fd0a4f28419497f9722a3daafe3b4186f6b6457e090600090a35050565b634e487b7160e01b600052604160045260246000fd5b600181811c908216806200012457607f821691505b6020821081036200014557634e487b7160e01b600052602260045260246000fd5b50919050565b601f8211156200019957600081815260208120601f850160051c81016020861015620001745750805b601f850160051c820191505b81811015620001955782815560010162000180565b5050505b505050565b81516001600160401b03811115620001ba57620001ba620000f9565b620001d281620001cb84546200010f565b846200014b565b602080601f8311600181146200020a5760008415620001f15750858301515b600019600386901b1c1916600185901b17855562000195565b600085815260208120601f198616915b828110156200023b578886015182559484019460019091019084016200021a565b50858210156200025a5787850151600019600388901b60f8161c191681555b5050505050600190811b01905550565b611dc7806200027a6000396000f3fe6080604052600436106101ee5760003560e01c8063715018a61161010d578063bdc32be0116100a0578063e4439a281161006f578063e4439a2814610546578063e985e9c514610564578063f2fde38b14610584578063f4217648146105a4578063f85dc76a146105c457600080fd5b8063bdc32be0146104e4578063c4e41b22146104f9578063c675bfca1461050e578063c87b56dd1461052657600080fd5b80638da5cb5b116100dc5780638da5cb5b1461047157806395d89b411461048f578063a22cb465146104a4578063b88d4fde146104c457600080fd5b8063715018a614610411578063744dab3814610426578063868ff4a2146104415780638718c9ec1461045457600080fd5b80633ccfd60b11610185578063517e511a11610154578063517e511a146103a3578063580099ed146103b75780636352211e146103d157806370a08231146103f157600080fd5b80633ccfd60b1461033057806342842e0e146103455780634c0f38c2146103655780634f5f6a791461038357600080fd5b80631950c218116101c15780631950c218146102a457806323b872dd146102dd5780632db11544146102fd578063301f8cfc1461031057600080fd5b806301ffc9a7146101f357806306fdde0314610228578063081812fc1461024a578063095ea7b314610282575b600080fd5b3480156101ff57600080fd5b5061021361020e3660046117d1565b6105fa565b60405190151581526020015b60405180910390f35b34801561023457600080fd5b5061023d61064c565b60405161021f919061183e565b34801561025657600080fd5b5061026a610265366004611851565b6106de565b6040516001600160a01b03909116815260200161021f565b34801561028e57600080fd5b506102a261029d366004611886565b610705565b005b3480156102b057600080fd5b506102136102bf3660046118b0565b6001600160a01b03166000908152600a602052604090205460ff1690565b3480156102e957600080fd5b506102a26102f83660046118cb565b61081f565b6102a261030b366004611851565b610850565b34801561031c57600080fd5b506102a261032b366004611917565b610901565b34801561033c57600080fd5b506102a2610925565b34801561035157600080fd5b506102a26103603660046118cb565b610960565b34801561037157600080fd5b5060085b60405190815260200161021f565b34801561038f57600080fd5b506102a261039e366004611932565b61097b565b3480156103af57600080fd5b506002610375565b3480156103c357600080fd5b50668e1bc9bf040000610375565b3480156103dd57600080fd5b5061026a6103ec366004611851565b6109a7565b3480156103fd57600080fd5b5061037561040c3660046118b0565b610a07565b34801561041d57600080fd5b506102a2610a8d565b34801561043257600080fd5b5067011c37937e080000610375565b6102a261044f366004611851565b610aa1565b34801561046057600080fd5b50600854610100900460ff16610213565b34801561047d57600080fd5b506006546001600160a01b031661026a565b34801561049b57600080fd5b5061023d610b50565b3480156104b057600080fd5b506102a26104bf366004611965565b610b5f565b3480156104d057600080fd5b506102a26104df366004611997565b610b6a565b3480156104f057600080fd5b5061023d610ba2565b34801561050557600080fd5b50600754610375565b34801561051a57600080fd5b5060085460ff16610213565b34801561053257600080fd5b5061023d610541366004611851565b610bc2565b34801561055257600080fd5b5060085462010000900460ff16610213565b34801561057057600080fd5b5061021361057f366004611a73565b610cf4565b34801561059057600080fd5b506102a261059f3660046118b0565b610d22565b3480156105b057600080fd5b506102a26105bf366004611a9d565b610d98565b3480156105d057600080fd5b506103756105df3660046118b0565b6001600160a01b031660009081526009602052604090205490565b60006001600160e01b031982166380ac58cd60e01b148061062b57506001600160e01b03198216635b5e139f60e01b145b8061064657506301ffc9a760e01b6001600160e01b03198316145b92915050565b60606000805461065b90611b12565b80601f016020809104026020016040519081016040528092919081815260200182805461068790611b12565b80156106d45780601f106106a9576101008083540402835291602001916106d4565b820191906000526020600020905b8154815290600101906020018083116106b757829003601f168201915b5050505050905090565b60006106e982610e12565b506000908152600460205260409020546001600160a01b031690565b6000610710826109a7565b9050806001600160a01b0316836001600160a01b0316036107825760405162461bcd60e51b815260206004820152602160248201527f4552433732313a20617070726f76616c20746f2063757272656e74206f776e656044820152603960f91b60648201526084015b60405180910390fd5b336001600160a01b038216148061079e575061079e8133610cf4565b6108105760405162461bcd60e51b815260206004820152603d60248201527f4552433732313a20617070726f76652063616c6c6572206973206e6f7420746f60448201527f6b656e206f776e6572206f7220617070726f76656420666f7220616c6c0000006064820152608401610779565b61081a8383610e71565b505050565b6108293382610edf565b6108455760405162461bcd60e51b815260040161077990611b46565b61081a838383610f3e565b60085460ff166108a25760405162461bcd60e51b815260206004820152601760248201527f7075626c6963206d696e74206e6f7420656e61626c65640000000000000000006044820152606401610779565b6108b48167011c37937e080000611ba9565b34146108f55760405162461bcd60e51b815260206004820152601060248201526f77726f6e67206d696e742076616c756560801b6044820152606401610779565b6108fe816110a2565b50565b6109096111ca565b60088054911515620100000262ff000019909216919091179055565b61092d6111ca565b6040514790339082156108fc029083906000818181858888f1935050505015801561095c573d6000803e3d6000fd5b5050565b61081a83838360405180602001604052806000815250610b6a565b6109836111ca565b6008805461ffff191692151561ff0019169290921761010091151591909102179055565b6000818152600260205260408120546001600160a01b0316806106465760405162461bcd60e51b8152602060048201526018602482015277115490cdcc8c4e881a5b9d985b1a59081d1bdad95b88125160421b6044820152606401610779565b60006001600160a01b038216610a715760405162461bcd60e51b815260206004820152602960248201527f4552433732313a2061646472657373207a65726f206973206e6f7420612076616044820152683634b21037bbb732b960b91b6064820152608401610779565b506001600160a01b031660009081526003602052604090205490565b610a956111ca565b610a9f6000611224565b565b600854610100900460ff16610aee5760405162461bcd60e51b815260206004820152601360248201527215d3081b5a5b9d081b9bdd08195b98589b1959606a1b6044820152606401610779565b336000908152600a602052604090205460ff16610b3f5760405162461bcd60e51b815260206004820152600f60248201526e1b9bdd081dda1a5d195b1a5cdd1959608a1b6044820152606401610779565b6108b481668e1bc9bf040000611ba9565b60606001805461065b90611b12565b61095c338383611276565b610b743383610edf565b610b905760405162461bcd60e51b815260040161077990611b46565b610b9c84848484611344565b50505050565b6060604051806080016040528060438152602001611d4f60439139905090565b6000818152600260205260409020546060906001600160a01b0316610c415760405162461bcd60e51b815260206004820152602f60248201527f4552433732314d657461646174613a2055524920717565727920666f72206e6f60448201526e3732bc34b9ba32b73a103a37b5b2b760891b6064820152608401610779565b6000604051806080016040528060438152602001611d4f6043913960085490915062010000900460ff16610cb5576000815111610c8d5760405180602001604052806000815250610cae565b80604051602001610c9e9190611bc0565b6040516020818303038152906040525b9392505050565b6000815111610cd35760405180602001604052806000815250610cae565b80610cdd84611377565b604051602001610c9e929190611bdc565b50919050565b6001600160a01b03918216600090815260056020908152604080832093909416825291909152205460ff1690565b610d2a6111ca565b6001600160a01b038116610d8f5760405162461bcd60e51b815260206004820152602660248201527f4f776e61626c653a206e6577206f776e657220697320746865207a65726f206160448201526564647265737360d01b6064820152608401610779565b6108fe81611224565b610da06111ca565b60005b8181101561081a576001600a6000858585818110610dc357610dc3611c1b565b9050602002016020810190610dd891906118b0565b6001600160a01b031681526020810191909152604001600020805460ff191691151591909117905580610e0a81611c31565b915050610da3565b6000818152600260205260409020546001600160a01b03166108fe5760405162461bcd60e51b8152602060048201526018602482015277115490cdcc8c4e881a5b9d985b1a59081d1bdad95b88125160421b6044820152606401610779565b600081815260046020526040902080546001600160a01b0319166001600160a01b0384169081179091558190610ea6826109a7565b6001600160a01b03167f8c5be1e5ebec7d5bd14f71427d1e84f3dd0314c0f7b2291e5b200ac8c7c3b92560405160405180910390a45050565b600080610eeb836109a7565b9050806001600160a01b0316846001600160a01b03161480610f125750610f128185610cf4565b80610f365750836001600160a01b0316610f2b846106de565b6001600160a01b0316145b949350505050565b826001600160a01b0316610f51826109a7565b6001600160a01b031614610f775760405162461bcd60e51b815260040161077990611c4a565b6001600160a01b038216610fd95760405162461bcd60e51b8152602060048201526024808201527f4552433732313a207472616e7366657220746f20746865207a65726f206164646044820152637265737360e01b6064820152608401610779565b826001600160a01b0316610fec826109a7565b6001600160a01b0316146110125760405162461bcd60e51b815260040161077990611c4a565b600081815260046020908152604080832080546001600160a01b03199081169091556001600160a01b0387811680865260038552838620805460001901905590871680865283862080546001019055868652600290945282852080549092168417909155905184937fddf252ad1be2c89b69c2b068fc378daa952ba7f163c4a11628f55a4df523b3ef91a4505050565b6008816007546110b29190611c8f565b11156110ee5760405162461bcd60e51b815260206004820152600b60248201526a1dd9481cdbdb19081bdd5d60aa1b6044820152606401610779565b3360009081526009602052604090205460029061110c908390611c8f565b111561115a5760405162461bcd60e51b815260206004820152601960248201527f6578636565646564206d61782077616c6c6574206c696d6974000000000000006044820152606401610779565b60005b8181101561095c57600060075460016111769190611c8f565b60078054919250600061118883611c31565b90915550503360009081526009602052604081208054916111a883611c31565b91905055506111b7338261140a565b50806111c281611c31565b91505061115d565b6006546001600160a01b03163314610a9f5760405162461bcd60e51b815260206004820181905260248201527f4f776e61626c653a2063616c6c6572206973206e6f7420746865206f776e65726044820152606401610779565b600680546001600160a01b038381166001600160a01b0319831681179093556040519116919082907f8be0079c531659141344cd1fd0a4f28419497f9722a3daafe3b4186f6b6457e090600090a35050565b816001600160a01b0316836001600160a01b0316036112d75760405162461bcd60e51b815260206004820152601960248201527f4552433732313a20617070726f766520746f2063616c6c6572000000000000006044820152606401610779565b6001600160a01b03838116600081815260056020908152604080832094871680845294825291829020805460ff191686151590811790915591519182527f17307eab39ab6107e8899845ad3d59bd9653f200f220920489ca2b5937696c31910160405180910390a3505050565b61134f848484610f3e565b61135b84848484611424565b610b9c5760405162461bcd60e51b815260040161077990611ca2565b6060600061138483611525565b600101905060008167ffffffffffffffff8111156113a4576113a4611981565b6040519080825280601f01601f1916602001820160405280156113ce576020820181803683370190505b5090508181016020015b600019016f181899199a1a9b1b9c1cb0b131b232b360811b600a86061a8153600a85049450846113d857509392505050565b61095c8282604051806020016040528060008152506115fd565b60006001600160a01b0384163b1561151a57604051630a85bd0160e11b81526001600160a01b0385169063150b7a0290611468903390899088908890600401611cf4565b6020604051808303816000875af19250505080156114a3575060408051601f3d908101601f191682019092526114a091810190611d31565b60015b611500573d8080156114d1576040519150601f19603f3d011682016040523d82523d6000602084013e6114d6565b606091505b5080516000036114f85760405162461bcd60e51b815260040161077990611ca2565b805181602001fd5b6001600160e01b031916630a85bd0160e11b149050610f36565b506001949350505050565b60008072184f03e93ff9f4daa797ed6e38ed64bf6a1f0160401b83106115645772184f03e93ff9f4daa797ed6e38ed64bf6a1f0160401b830492506040015b6d04ee2d6d415b85acef81000000008310611590576d04ee2d6d415b85acef8100000000830492506020015b662386f26fc1000083106115ae57662386f26fc10000830492506010015b6305f5e10083106115c6576305f5e100830492506008015b61271083106115da57612710830492506004015b606483106115ec576064830492506002015b600a83106106465760010192915050565b6116078383611630565b6116146000848484611424565b61081a5760405162461bcd60e51b815260040161077990611ca2565b6001600160a01b0382166116865760405162461bcd60e51b815260206004820181905260248201527f4552433732313a206d696e7420746f20746865207a65726f20616464726573736044820152606401610779565b6000818152600260205260409020546001600160a01b0316156116eb5760405162461bcd60e51b815260206004820152601c60248201527f4552433732313a20746f6b656e20616c7265616479206d696e746564000000006044820152606401610779565b6000818152600260205260409020546001600160a01b0316156117505760405162461bcd60e51b815260206004820152601c60248201527f4552433732313a20746f6b656e20616c7265616479206d696e746564000000006044820152606401610779565b6001600160a01b038216600081815260036020908152604080832080546001019055848352600290915280822080546001600160a01b0319168417905551839291907fddf252ad1be2c89b69c2b068fc378daa952ba7f163c4a11628f55a4df523b3ef908290a45050565b6001600160e01b0319811681146108fe57600080fd5b6000602082840312156117e357600080fd5b8135610cae816117bb565b60005b838110156118095781810151838201526020016117f1565b50506000910152565b6000815180845261182a8160208601602086016117ee565b601f01601f19169290920160200192915050565b602081526000610cae6020830184611812565b60006020828403121561186357600080fd5b5035919050565b80356001600160a01b038116811461188157600080fd5b919050565b6000806040838503121561189957600080fd5b6118a28361186a565b946020939093013593505050565b6000602082840312156118c257600080fd5b610cae8261186a565b6000806000606084860312156118e057600080fd5b6118e98461186a565b92506118f76020850161186a565b9150604084013590509250925092565b8035801515811461188157600080fd5b60006020828403121561192957600080fd5b610cae82611907565b6000806040838503121561194557600080fd5b61194e83611907565b915061195c60208401611907565b90509250929050565b6000806040838503121561197857600080fd5b61194e8361186a565b634e487b7160e01b600052604160045260246000fd5b600080600080608085870312156119ad57600080fd5b6119b68561186a565b93506119c46020860161186a565b925060408501359150606085013567ffffffffffffffff808211156119e857600080fd5b818701915087601f8301126119fc57600080fd5b813581811115611a0e57611a0e611981565b604051601f8201601f19908116603f01168101908382118183101715611a3657611a36611981565b816040528281528a6020848701011115611a4f57600080fd5b82602086016020830137600060208483010152809550505050505092959194509250565b60008060408385031215611a8657600080fd5b611a8f8361186a565b915061195c6020840161186a565b60008060208385031215611ab057600080fd5b823567ffffffffffffffff80821115611ac857600080fd5b818501915085601f830112611adc57600080fd5b813581811115611aeb57600080fd5b8660208260051b8501011115611b0057600080fd5b60209290920196919550909350505050565b600181811c90821680611b2657607f821691505b602082108103610cee57634e487b7160e01b600052602260045260246000fd5b6020808252602d908201527f4552433732313a2063616c6c6572206973206e6f7420746f6b656e206f776e6560408201526c1c881bdc88185c1c1c9bdd9959609a1b606082015260800190565b634e487b7160e01b600052601160045260246000fd5b808202811582820484141761064657610646611b93565b60008251611bd28184602087016117ee565b9190910192915050565b60008351611bee8184602088016117ee565b835190830190611c028183602088016117ee565b64173539b7b760d91b9101908152600501949350505050565b634e487b7160e01b600052603260045260246000fd5b600060018201611c4357611c43611b93565b5060010190565b60208082526025908201527f4552433732313a207472616e736665722066726f6d20696e636f72726563742060408201526437bbb732b960d91b606082015260800190565b8082018082111561064657610646611b93565b60208082526032908201527f4552433732313a207472616e7366657220746f206e6f6e20455243373231526560408201527131b2b4bb32b91034b6b83632b6b2b73a32b960711b606082015260800190565b6001600160a01b0385811682528416602082015260408101839052608060608201819052600090611d2790830184611812565b9695505050505050565b600060208284031215611d4357600080fd5b8151610cae816117bb56fe697066733a2f2f62616679626569646c6e6a7637626261727433617a7a697a6a68373679777076746e7336376e7a33633270647535787679746472747762656f70752fa264697066735822122055eeb3b737e5b74319f32d3d94ec6d74dad138f17651b8f94157d55db7208d9464736f6c63430008120033",
  "linkReferences": {},
  "deployedLinkReferences": {}
}